{
  "_format": "hh-sol-artifact-1",
  "contractName": "Pair",
  "sourceName": "contracts/Pair.sol",
  "abi": [
    {
      "inputs": [],
      "stateMutability": "nonpayable",
      "type": "constructor"
    },
    {
      "inputs": [
        {
          "internalType": "address",
          "name": "spender",
          "type": "address"
        },
        {
          "internalType": "uint256",
          "name": "allowance",
          "type": "uint256"
        },
        {
          "internalType": "uint256",
          "name": "needed",
          "type": "uint256"
        }
      ],
      "name": "ERC20InsufficientAllowance",
      "type": "error"
    },
    {
      "inputs": [
        {
          "internalType": "address",
          "name": "sender",
          "type": "address"
        },
        {
          "internalType": "uint256",
          "name": "balance",
          "type": "uint256"
        },
        {
          "internalType": "uint256",
          "name": "needed",
          "type": "uint256"
        }
      ],
      "name": "ERC20InsufficientBalance",
      "type": "error"
    },
    {
      "inputs": [
        {
          "internalType": "address",
          "name": "approver",
          "type": "address"
        }
      ],
      "name": "ERC20InvalidApprover",
      "type": "error"
    },
    {
      "inputs": [
        {
          "internalType": "address",
          "name": "receiver",
          "type": "address"
        }
      ],
      "name": "ERC20InvalidReceiver",
      "type": "error"
    },
    {
      "inputs": [
        {
          "internalType": "address",
          "name": "sender",
          "type": "address"
        }
      ],
      "name": "ERC20InvalidSender",
      "type": "error"
    },
    {
      "inputs": [
        {
          "internalType": "address",
          "name": "spender",
          "type": "address"
        }
      ],
      "name": "ERC20InvalidSpender",
      "type": "error"
    },
    {
      "inputs": [],
      "name": "Pair__AlreadyInitialized",
      "type": "error"
    },
    {
      "inputs": [],
      "name": "Pair__Forbidden",
      "type": "error"
    },
    {
      "inputs": [],
      "name": "Pair__InsufficientInputAmount",
      "type": "error"
    },
    {
      "inputs": [],
      "name": "Pair__InsufficientLiquidity",
      "type": "error"
    },
    {
      "inputs": [],
      "name": "Pair__InsufficientLiquidityBurned",
      "type": "error"
    },
    {
      "inputs": [],
      "name": "Pair__InsufficientLiquidityMinted",
      "type": "error"
    },
    {
      "inputs": [],
      "name": "Pair__InsufficientOutputAmount",
      "type": "error"
    },
    {
      "inputs": [],
      "name": "Pair__InvalidTo",
      "type": "error"
    },
    {
      "inputs": [],
      "name": "ReentrancyGuardReentrantCall",
      "type": "error"
    },
    {
      "inputs": [
        {
          "internalType": "address",
          "name": "token",
          "type": "address"
        }
      ],
      "name": "SafeERC20FailedOperation",
      "type": "error"
    },
    {
      "anonymous": false,
      "inputs": [
        {
          "indexed": true,
          "internalType": "address",
          "name": "owner",
          "type": "address"
        },
        {
          "indexed": true,
          "internalType": "address",
          "name": "spender",
          "type": "address"
        },
        {
          "indexed": false,
          "internalType": "uint256",
          "name": "value",
          "type": "uint256"
        }
      ],
      "name": "Approval",
      "type": "event"
    },
    {
      "anonymous": false,
      "inputs": [
        {
          "indexed": true,
          "internalType": "address",
          "name": "sender",
          "type": "address"
        },
        {
          "indexed": false,
          "internalType": "uint256",
          "name": "amount0",
          "type": "uint256"
        },
        {
          "indexed": false,
          "internalType": "uint256",
          "name": "amount1",
          "type": "uint256"
        },
        {
          "indexed": true,
          "internalType": "address",
          "name": "to",
          "type": "address"
        }
      ],
      "name": "Burn",
      "type": "event"
    },
    {
      "anonymous": false,
      "inputs": [
        {
          "indexed": true,
          "internalType": "address",
          "name": "sender",
          "type": "address"
        },
        {
          "indexed": false,
          "internalType": "uint256",
          "name": "amount0",
          "type": "uint256"
        },
        {
          "indexed": false,
          "internalType": "uint256",
          "name": "amount1",
          "type": "uint256"
        }
      ],
      "name": "Mint",
      "type": "event"
    },
    {
      "anonymous": false,
      "inputs": [
        {
          "indexed": true,
          "internalType": "address",
          "name": "sender",
          "type": "address"
        },
        {
          "indexed": false,
          "internalType": "uint256",
          "name": "amount0In",
          "type": "uint256"
        },
        {
          "indexed": false,
          "internalType": "uint256",
          "name": "amount1In",
          "type": "uint256"
        },
        {
          "indexed": false,
          "internalType": "uint256",
          "name": "amount0Out",
          "type": "uint256"
        },
        {
          "indexed": false,
          "internalType": "uint256",
          "name": "amount1Out",
          "type": "uint256"
        },
        {
          "indexed": true,
          "internalType": "address",
          "name": "to",
          "type": "address"
        }
      ],
      "name": "Swap",
      "type": "event"
    },
    {
      "anonymous": false,
      "inputs": [
        {
          "indexed": false,
          "internalType": "uint256",
          "name": "reserve0",
          "type": "uint256"
        },
        {
          "indexed": false,
          "internalType": "uint256",
          "name": "reserve1",
          "type": "uint256"
        }
      ],
      "name": "Sync",
      "type": "event"
    },
    {
      "anonymous": false,
      "inputs": [
        {
          "indexed": true,
          "internalType": "address",
          "name": "from",
          "type": "address"
        },
        {
          "indexed": true,
          "internalType": "address",
          "name": "to",
          "type": "address"
        },
        {
          "indexed": false,
          "internalType": "uint256",
          "name": "value",
          "type": "uint256"
        }
      ],
      "name": "Transfer",
      "type": "event"
    },
    {
      "inputs": [
        {
          "internalType": "address",
          "name": "owner",
          "type": "address"
        },
        {
          "internalType": "address",
          "name": "spender",
          "type": "address"
        }
      ],
      "name": "allowance",
      "outputs": [
        {
          "internalType": "uint256",
          "name": "",
          "type": "uint256"
        }
      ],
      "stateMutability": "view",
      "type": "function"
    },
    {
      "inputs": [
        {
          "internalType": "address",
          "name": "spender",
          "type": "address"
        },
        {
          "internalType": "uint256",
          "name": "value",
          "type": "uint256"
        }
      ],
      "name": "approve",
      "outputs": [
        {
          "internalType": "bool",
          "name": "",
          "type": "bool"
        }
      ],
      "stateMutability": "nonpayable",
      "type": "function"
    },
    {
      "inputs": [
        {
          "internalType": "address",
          "name": "account",
          "type": "address"
        }
      ],
      "name": "balanceOf",
      "outputs": [
        {
          "internalType": "uint256",
          "name": "",
          "type": "uint256"
        }
      ],
      "stateMutability": "view",
      "type": "function"
    },
    {
      "inputs": [
        {
          "internalType": "address",
          "name": "to",
          "type": "address"
        }
      ],
      "name": "burn",
      "outputs": [
        {
          "internalType": "uint256",
          "name": "amount0",
          "type": "uint256"
        },
        {
          "internalType": "uint256",
          "name": "amount1",
          "type": "uint256"
        }
      ],
      "stateMutability": "nonpayable",
      "type": "function"
    },
    {
      "inputs": [],
      "name": "decimals",
      "outputs": [
        {
          "internalType": "uint8",
          "name": "",
          "type": "uint8"
        }
      ],
      "stateMutability": "view",
      "type": "function"
    },
    {
      "inputs": [],
      "name": "getReserves",
      "outputs": [
        {
          "internalType": "uint256",
          "name": "",
          "type": "uint256"
        },
        {
          "internalType": "uint256",
          "name": "",
          "type": "uint256"
        }
      ],
      "stateMutability": "view",
      "type": "function"
    },
    {
      "inputs": [],
      "name": "getToken0",
      "outputs": [
        {
          "internalType": "address",
          "name": "",
          "type": "address"
        }
      ],
      "stateMutability": "view",
      "type": "function"
    },
    {
      "inputs": [],
      "name": "getToken1",
      "outputs": [
        {
          "internalType": "address",
          "name": "",
          "type": "address"
        }
      ],
      "stateMutability": "view",
      "type": "function"
    },
    {
      "inputs": [],
      "name": "i_factory",
      "outputs": [
        {
          "internalType": "address",
          "name": "",
          "type": "address"
        }
      ],
      "stateMutability": "view",
      "type": "function"
    },
    {
      "inputs": [
        {
          "internalType": "address",
          "name": "_token0",
          "type": "address"
        },
        {
          "internalType": "address",
          "name": "_token1",
          "type": "address"
        }
      ],
      "name": "initialize",
      "outputs": [],
      "stateMutability": "nonpayable",
      "type": "function"
    },
    {
      "inputs": [
        {
          "internalType": "address",
          "name": "to",
          "type": "address"
        }
      ],
      "name": "mint",
      "outputs": [
        {
          "internalType": "uint256",
          "name": "liquidity",
          "type": "uint256"
        }
      ],
      "stateMutability": "nonpayable",
      "type": "function"
    },
    {
      "inputs": [],
      "name": "name",
      "outputs": [
        {
          "internalType": "string",
          "name": "",
          "type": "string"
        }
      ],
      "stateMutability": "view",
      "type": "function"
    },
    {
      "inputs": [
        {
          "internalType": "uint256",
          "name": "amount0Out",
          "type": "uint256"
        },
        {
          "internalType": "uint256",
          "name": "amount1Out",
          "type": "uint256"
        },
        {
          "internalType": "address",
          "name": "to",
          "type": "address"
        }
      ],
      "name": "swap",
      "outputs": [],
      "stateMutability": "nonpayable",
      "type": "function"
    },
    {
      "inputs": [],
      "name": "symbol",
      "outputs": [
        {
          "internalType": "string",
          "name": "",
          "type": "string"
        }
      ],
      "stateMutability": "view",
      "type": "function"
    },
    {
      "inputs": [],
      "name": "totalSupply",
      "outputs": [
        {
          "internalType": "uint256",
          "name": "",
          "type": "uint256"
        }
      ],
      "stateMutability": "view",
      "type": "function"
    },
    {
      "inputs": [
        {
          "internalType": "address",
          "name": "to",
          "type": "address"
        },
        {
          "internalType": "uint256",
          "name": "value",
          "type": "uint256"
        }
      ],
      "name": "transfer",
      "outputs": [
        {
          "internalType": "bool",
          "name": "",
          "type": "bool"
        }
      ],
      "stateMutability": "nonpayable",
      "type": "function"
    },
    {
      "inputs": [
        {
          "internalType": "address",
          "name": "from",
          "type": "address"
        },
        {
          "internalType": "address",
          "name": "to",
          "type": "address"
        },
        {
          "internalType": "uint256",
          "name": "value",
          "type": "uint256"
        }
      ],
      "name": "transferFrom",
      "outputs": [
        {
          "internalType": "bool",
          "name": "",
          "type": "bool"
        }
      ],
      "stateMutability": "nonpayable",
      "type": "function"
    }
  ],
  "bytecode": "0x60a060405234801561001057600080fd5b50604051806040016040528060088152602001672ab734902830b4b960c11b81525060405180604001604052806003815260200162554e4960e81b815250816003908161005d919061011a565b50600461006a828261011a565b5050600160055550336080526101d8565b634e487b7160e01b600052604160045260246000fd5b600181811c908216806100a557607f821691505b6020821081036100c557634e487b7160e01b600052602260045260246000fd5b50919050565b601f82111561011557806000526020600020601f840160051c810160208510156100f25750805b601f840160051c820191505b8181101561011257600081556001016100fe565b50505b505050565b81516001600160401b038111156101335761013361007b565b610147816101418454610091565b846100cb565b6020601f82116001811461017b57600083156101635750848201515b600019600385901b1c1916600184901b178455610112565b600084815260208120601f198516915b828110156101ab578785015182556020948501946001909201910161018b565b50848210156101c95786840151600019600387901b60f8161c191681555b50505050600190811b01905550565b6080516118246101fa6000396000818161026d01526103f701526118246000f3fe608060405234801561001057600080fd5b506004361061011b5760003560e01c80636d9a640a116100b257806395d89b4111610081578063b77b47a911610066578063b77b47a914610268578063ba94a3151461028f578063dd62ed3e146102a057600080fd5b806395d89b411461024d578063a9059cbb1461025557600080fd5b80636d9a640a146101d95780636f26a710146101ec57806370a082311461021157806389afcb441461023a57600080fd5b806323b872dd116100ee57806323b872dd1461018f578063313ce567146101a2578063485cc955146101b15780636a627842146101c657600080fd5b806306fdde03146101205780630902f1ac1461013e578063095ea7b31461015a57806318160ddd1461017d575b600080fd5b6101286102d9565b60405161013591906114cb565b60405180910390f35b6008546009545b60408051928352602083019190915201610135565b61016d610168366004611530565b61036b565b6040519015158152602001610135565b6002545b604051908152602001610135565b61016d61019d36600461155a565b610385565b60405160128152602001610135565b6101c46101bf366004611597565b6103a9565b005b6101816101d43660046115ca565b610494565b6101c46101e73660046115e5565b6106d7565b6007546001600160a01b03165b6040516001600160a01b039091168152602001610135565b61018161021f3660046115ca565b6001600160a01b031660009081526020819052604090205490565b6101456102483660046115ca565b610af8565b610128610de3565b61016d610263366004611530565b610df2565b6101f97f000000000000000000000000000000000000000000000000000000000000000081565b6006546001600160a01b03166101f9565b6101816102ae366004611597565b6001600160a01b03918216600090815260016020908152604080832093909416825291909152205490565b6060600380546102e89061161a565b80601f01602080910402602001604051908101604052809291908181526020018280546103149061161a565b80156103615780601f1061033657610100808354040283529160200191610361565b820191906000526020600020905b81548152906001019060200180831161034457829003601f168201915b5050505050905090565b600033610379818585610e00565b60019150505b92915050565b600033610393858285610e0d565b61039e858585610ea5565b506001949350505050565b6006546001600160a01b0316156103ec576040517ff669b6bd00000000000000000000000000000000000000000000000000000000815260040160405180910390fd5b336001600160a01b037f0000000000000000000000000000000000000000000000000000000000000000161461044e576040517fdf64eb8400000000000000000000000000000000000000000000000000000000815260040160405180910390fd5b600680546001600160a01b039384167fffffffffffffffffffffffff00000000000000000000000000000000000000009182161790915560078054929093169116179055565b600061049e610f04565b6000806104ae6008546009549091565b6006546040516370a0823160e01b81523060048201529294509092506000916001600160a01b03909116906370a0823190602401602060405180830381865afa1580156104ff573d6000803e3d6000fd5b505050506040513d601f19601f820116820180604052508101906105239190611654565b6007546040516370a0823160e01b81523060048201529192506000916001600160a01b03909116906370a0823190602401602060405180830381865afa158015610571573d6000803e3d6000fd5b505050506040513d601f19601f820116820180604052508101906105959190611654565b905060006105a38584611683565b905060006105b18584611683565b905060006105be60025490565b9050806000036105fa576103e86105dd6105d88486611696565b610f47565b6105e79190611683565b97506105f5306103e86110ad565b61062f565b61062c876106088386611696565b61061291906116c3565b8761061d8486611696565b61062791906116c3565b6110e7565b97505b60008811610669576040517f554c1fde00000000000000000000000000000000000000000000000000000000815260040160405180910390fd5b61067389896110ad565b61067d85856110fa565b60408051848152602081018490526001600160a01b038b16917f4c209b5fc8ad50758f13e2e1088ba56a560dff690a1c6fef26394f4c03821c4f910160405180910390a2505050505050506106d26001600555565b919050565b6106df610f04565b60008311806106ee5750600082115b610724576040517fc6941f8900000000000000000000000000000000000000000000000000000000815260040160405180910390fd5b6000806107346008546009549091565b91509150818510801561074657508084105b61077c576040517fb1cf11a600000000000000000000000000000000000000000000000000000000815260040160405180910390fd5b60065460075460009182916001600160a01b039182169190811690871682148015906107ba5750806001600160a01b0316876001600160a01b031614155b6107f0576040517f7ec3c44500000000000000000000000000000000000000000000000000000000815260040160405180910390fd5b881561080a5761080a6001600160a01b038316888b611141565b8715610824576108246001600160a01b038216888a611141565b6040516370a0823160e01b81523060048201526001600160a01b038316906370a0823190602401602060405180830381865afa158015610868573d6000803e3d6000fd5b505050506040513d601f19601f8201168201806040525081019061088c9190611654565b6040516370a0823160e01b81523060048201529094506001600160a01b038216906370a0823190602401602060405180830381865afa1580156108d3573d6000803e3d6000fd5b505050506040513d601f19601f820116820180604052508101906108f79190611654565b92505050600087856109099190611683565b831161091657600061092a565b6109208886611683565b61092a9084611683565b905060006109388886611683565b8311610945576000610959565b61094f8886611683565b6109599084611683565b9050600082118061096a5750600081115b6109a0576040517fc1c38b2200000000000000000000000000000000000000000000000000000000815260040160405180910390fd5b60006109ad836003611696565b6109b96103e887611696565b6109c39190611683565b905060006109d2836003611696565b6109de6103e887611696565b6109e89190611683565b90506109f760026103e86117cc565b610a01888a611696565b610a0b9190611696565b610a158284611696565b1015610a82576040517f08c379a000000000000000000000000000000000000000000000000000000000815260206004820152600160248201527f4b0000000000000000000000000000000000000000000000000000000000000060448201526064015b60405180910390fd5b610a8c86866110fa565b60408051858152602081018590529081018c9052606081018b90526001600160a01b038a169033907fd78ad95fa46c994b6551d0da85fc275fe613ce37657fb8d5e3d130840159d8229060800160405180910390a35050505050505050610af36001600555565b505050565b600080610b03610f04565b6006546040516370a0823160e01b81523060048201526000916001600160a01b0316906370a0823190602401602060405180830381865afa158015610b4c573d6000803e3d6000fd5b505050506040513d601f19601f82011682018060405250810190610b709190611654565b6007546040516370a0823160e01b81523060048201529192506000916001600160a01b03909116906370a0823190602401602060405180830381865afa158015610bbe573d6000803e3d6000fd5b505050506040513d601f19601f82011682018060405250810190610be29190611654565b306000908152602081905260409020546002549192509080610c048584611696565b610c0e91906116c3565b955080610c1b8484611696565b610c2591906116c3565b9450600086118015610c375750600085115b610c6d576040517f50fae2e800000000000000000000000000000000000000000000000000000000815260040160405180910390fd5b610c7730836111c1565b600654610c8e906001600160a01b03168888611141565b600754610ca5906001600160a01b03168887611141565b6006546040516370a0823160e01b81523060048201526001600160a01b03909116906370a0823190602401602060405180830381865afa158015610ced573d6000803e3d6000fd5b505050506040513d601f19601f82011682018060405250810190610d119190611654565b6007546040516370a0823160e01b81523060048201529195506001600160a01b0316906370a0823190602401602060405180830381865afa158015610d5a573d6000803e3d6000fd5b505050506040513d601f19601f82011682018060405250810190610d7e9190611654565b9250610d8a84846110fa565b60408051878152602081018790526001600160a01b0389169133917fdccd412f0b1252819cb1fd330b93224ca42612892bb3f4f789976e6d81936496910160405180910390a350505050610dde6001600555565b915091565b6060600480546102e89061161a565b600033610379818585610ea5565b610af383838360016111f7565b6001600160a01b03838116600090815260016020908152604080832093861683529290522054600019811015610e9f5781811015610e90576040517ffb8f41b20000000000000000000000000000000000000000000000000000000081526001600160a01b03841660048201526024810182905260448101839052606401610a79565b610e9f848484840360006111f7565b50505050565b6001600160a01b038316610ecf57604051634b637e8f60e11b815260006004820152602401610a79565b6001600160a01b038216610ef95760405163ec442f0560e01b815260006004820152602401610a79565b610af38383836112fe565b600260055403610f40576040517f3ee5aeb500000000000000000000000000000000000000000000000000000000815260040160405180910390fd5b6002600555565b600060018211610f55575090565b8160017001000000000000000000000000000000008210610f7b5760809190911c9060401b5b680100000000000000008210610f965760409190911c9060201b5b6401000000008210610fad5760209190911c9060101b5b620100008210610fc25760109190911c9060081b5b6101008210610fd65760089190911c9060041b5b60108210610fe95760049190911c9060021b5b60048210610ff55760011b5b600302600190811c9081858161100d5761100d6116ad565b048201901c90506001818581611025576110256116ad565b048201901c9050600181858161103d5761103d6116ad565b048201901c90506001818581611055576110556116ad565b048201901c9050600181858161106d5761106d6116ad565b048201901c90506001818581611085576110856116ad565b048201901c90506110a481858161109e5761109e6116ad565b04821190565b90039392505050565b6001600160a01b0382166110d75760405163ec442f0560e01b815260006004820152602401610a79565b6110e3600083836112fe565b5050565b60008282188284100282185b9392505050565b6008829055600981905560408051838152602081018390527fcf2aa50876cdfbb541206f89af0ee78d44a2abf8d328e37fa4917f982149848a910160405180910390a15050565b604080516001600160a01b038416602482015260448082018490528251808303909101815260649091019091526020810180517bffffffffffffffffffffffffffffffffffffffffffffffffffffffff167fa9059cbb00000000000000000000000000000000000000000000000000000000179052610af3908490611441565b6001600160a01b0382166111eb57604051634b637e8f60e11b815260006004820152602401610a79565b6110e3826000836112fe565b6001600160a01b03841661123a576040517fe602df0500000000000000000000000000000000000000000000000000000000815260006004820152602401610a79565b6001600160a01b03831661127d576040517f94280d6200000000000000000000000000000000000000000000000000000000815260006004820152602401610a79565b6001600160a01b0380851660009081526001602090815260408083209387168352929052208290558015610e9f57826001600160a01b0316846001600160a01b03167f8c5be1e5ebec7d5bd14f71427d1e84f3dd0314c0f7b2291e5b200ac8c7c3b925846040516112f091815260200190565b60405180910390a350505050565b6001600160a01b03831661132957806002600082825461131e91906117db565b909155506113b49050565b6001600160a01b03831660009081526020819052604090205481811015611395576040517fe450d38c0000000000000000000000000000000000000000000000000000000081526001600160a01b03851660048201526024810182905260448101839052606401610a79565b6001600160a01b03841660009081526020819052604090209082900390555b6001600160a01b0382166113d0576002805482900390556113ef565b6001600160a01b03821660009081526020819052604090208054820190555b816001600160a01b0316836001600160a01b03167fddf252ad1be2c89b69c2b068fc378daa952ba7f163c4a11628f55a4df523b3ef8360405161143491815260200190565b60405180910390a3505050565b600080602060008451602086016000885af180611464576040513d6000823e3d81fd5b50506000513d9150811561147c578060011415611489565b6001600160a01b0384163b155b15610e9f576040517f5274afe70000000000000000000000000000000000000000000000000000000081526001600160a01b0385166004820152602401610a79565b602081526000825180602084015260005b818110156114f957602081860181015160408684010152016114dc565b506000604082850101526040601f19601f83011684010191505092915050565b80356001600160a01b03811681146106d257600080fd5b6000806040838503121561154357600080fd5b61154c83611519565b946020939093013593505050565b60008060006060848603121561156f57600080fd5b61157884611519565b925061158660208501611519565b929592945050506040919091013590565b600080604083850312156115aa57600080fd5b6115b383611519565b91506115c160208401611519565b90509250929050565b6000602082840312156115dc57600080fd5b6110f382611519565b6000806000606084860312156115fa57600080fd5b833592506020840135915061161160408501611519565b90509250925092565b600181811c9082168061162e57607f821691505b60208210810361164e57634e487b7160e01b600052602260045260246000fd5b50919050565b60006020828403121561166657600080fd5b5051919050565b634e487b7160e01b600052601160045260246000fd5b8181038181111561037f5761037f61166d565b808202811582820484141761037f5761037f61166d565b634e487b7160e01b600052601260045260246000fd5b6000826116e057634e487b7160e01b600052601260045260246000fd5b500490565b6001815b6001841115611720578085048111156117045761170461166d565b600184161561171257908102905b60019390931c9280026116e9565b935093915050565b6000826117375750600161037f565b816117445750600061037f565b816001811461175a576002811461176457611780565b600191505061037f565b60ff8411156117755761177561166d565b50506001821b61037f565b5060208310610133831016604e8410600b84101617156117a3575081810a61037f565b6117b060001984846116e5565b80600019048211156117c4576117c461166d565b029392505050565b60006110f360ff841683611728565b8082018082111561037f5761037f61166d56fea2646970667358221220f20e20b13b33b14b5d4c4ac3602bbccb9b3137992ebf1152d0f8e20d892b71f564736f6c634300081c0033",
  "linkReferences": {},
  "deployedLinkReferences": {}
}