{
  "_format": "hh-sol-artifact-1",
  "contractName": "Router",
  "sourceName": "contracts/Router.sol",
  "abi": [
    {
      "inputs": [
        {
          "internalType": "address",
          "name": "_factory",
          "type": "address"
        }
      ],
      "stateMutability": "nonpayable",
      "type": "constructor"
    },
    {
      "inputs": [],
      "name": "Library__IdenticalAddresses",
      "type": "error"
    },
    {
      "inputs": [],
      "name": "Library__InsufficientAmount",
      "type": "error"
    },
    {
      "inputs": [],
      "name": "Library__InsufficientInputAmount",
      "type": "error"
    },
    {
      "inputs": [],
      "name": "Library__InsufficientLiquidity",
      "type": "error"
    },
    {
      "inputs": [],
      "name": "Library__InsufficientOutputAmount",
      "type": "error"
    },
    {
      "inputs": [],
      "name": "Library__InvalidPath",
      "type": "error"
    },
    {
      "inputs": [],
      "name": "Library__ZeroAddress",
      "type": "error"
    },
    {
      "inputs": [],
      "name": "Router__ExcessiveInputAmount",
      "type": "error"
    },
    {
      "inputs": [],
      "name": "Router__Expired",
      "type": "error"
    },
    {
      "inputs": [],
      "name": "Router__InsufficientAmountA",
      "type": "error"
    },
    {
      "inputs": [],
      "name": "Router__InsufficientAmountB",
      "type": "error"
    },
    {
      "inputs": [],
      "name": "Router__InsufficientOutputAmount",
      "type": "error"
    },
    {
      "inputs": [
        {
          "internalType": "address",
          "name": "token",
          "type": "address"
        }
      ],
      "name": "SafeERC20FailedOperation",
      "type": "error"
    },
    {
      "inputs": [
        {
          "internalType": "address",
          "name": "tokenA",
          "type": "address"
        },
        {
          "internalType": "address",
          "name": "tokenB",
          "type": "address"
        },
        {
          "internalType": "uint256",
          "name": "amountADesired",
          "type": "uint256"
        },
        {
          "internalType": "uint256",
          "name": "amountBDesired",
          "type": "uint256"
        },
        {
          "internalType": "uint256",
          "name": "amountAMin",
          "type": "uint256"
        },
        {
          "internalType": "uint256",
          "name": "amountBMin",
          "type": "uint256"
        },
        {
          "internalType": "address",
          "name": "to",
          "type": "address"
        },
        {
          "internalType": "uint256",
          "name": "deadline",
          "type": "uint256"
        }
      ],
      "name": "addLiquidity",
      "outputs": [
        {
          "internalType": "uint256",
          "name": "amountA",
          "type": "uint256"
        },
        {
          "internalType": "uint256",
          "name": "amountB",
          "type": "uint256"
        },
        {
          "internalType": "uint256",
          "name": "liquidity",
          "type": "uint256"
        }
      ],
      "stateMutability": "nonpayable",
      "type": "function"
    },
    {
      "inputs": [
        {
          "internalType": "uint256",
          "name": "amountOut",
          "type": "uint256"
        },
        {
          "internalType": "uint256",
          "name": "reserveIn",
          "type": "uint256"
        },
        {
          "internalType": "uint256",
          "name": "reserveOut",
          "type": "uint256"
        }
      ],
      "name": "getAmountIn",
      "outputs": [
        {
          "internalType": "uint256",
          "name": "amountIn",
          "type": "uint256"
        }
      ],
      "stateMutability": "pure",
      "type": "function"
    },
    {
      "inputs": [
        {
          "internalType": "uint256",
          "name": "amountIn",
          "type": "uint256"
        },
        {
          "internalType": "uint256",
          "name": "reserveIn",
          "type": "uint256"
        },
        {
          "internalType": "uint256",
          "name": "reserveOut",
          "type": "uint256"
        }
      ],
      "name": "getAmountOut",
      "outputs": [
        {
          "internalType": "uint256",
          "name": "amountOut",
          "type": "uint256"
        }
      ],
      "stateMutability": "pure",
      "type": "function"
    },
    {
      "inputs": [
        {
          "internalType": "uint256",
          "name": "amountOut",
          "type": "uint256"
        },
        {
          "internalType": "address[]",
          "name": "path",
          "type": "address[]"
        }
      ],
      "name": "getAmountsIn",
      "outputs": [
        {
          "internalType": "uint256[]",
          "name": "amounts",
          "type": "uint256[]"
        }
      ],
      "stateMutability": "view",
      "type": "function"
    },
    {
      "inputs": [
        {
          "internalType": "uint256",
          "name": "amountIn",
          "type": "uint256"
        },
        {
          "internalType": "address[]",
          "name": "path",
          "type": "address[]"
        }
      ],
      "name": "getAmountsOut",
      "outputs": [
        {
          "internalType": "uint256[]",
          "name": "amounts",
          "type": "uint256[]"
        }
      ],
      "stateMutability": "view",
      "type": "function"
    },
    {
      "inputs": [
        {
          "internalType": "address",
          "name": "tokenA",
          "type": "address"
        },
        {
          "internalType": "address",
          "name": "tokenB",
          "type": "address"
        }
      ],
      "name": "getReserves",
      "outputs": [
        {
          "internalType": "uint256",
          "name": "",
          "type": "uint256"
        },
        {
          "internalType": "uint256",
          "name": "",
          "type": "uint256"
        }
      ],
      "stateMutability": "view",
      "type": "function"
    },
    {
      "inputs": [],
      "name": "i_factory",
      "outputs": [
        {
          "internalType": "address",
          "name": "",
          "type": "address"
        }
      ],
      "stateMutability": "view",
      "type": "function"
    },
    {
      "inputs": [
        {
          "internalType": "address",
          "name": "tokenA",
          "type": "address"
        },
        {
          "internalType": "address",
          "name": "tokenB",
          "type": "address"
        },
        {
          "internalType": "uint256",
          "name": "liquidity",
          "type": "uint256"
        },
        {
          "internalType": "uint256",
          "name": "amountAMin",
          "type": "uint256"
        },
        {
          "internalType": "uint256",
          "name": "amountBMin",
          "type": "uint256"
        },
        {
          "internalType": "address",
          "name": "to",
          "type": "address"
        },
        {
          "internalType": "uint256",
          "name": "deadline",
          "type": "uint256"
        }
      ],
      "name": "removeLiquidity",
      "outputs": [
        {
          "internalType": "uint256",
          "name": "amountA",
          "type": "uint256"
        },
        {
          "internalType": "uint256",
          "name": "amountB",
          "type": "uint256"
        }
      ],
      "stateMutability": "nonpayable",
      "type": "function"
    },
    {
      "inputs": [
        {
          "internalType": "uint256",
          "name": "amountIn",
          "type": "uint256"
        },
        {
          "internalType": "uint256",
          "name": "amountOutMin",
          "type": "uint256"
        },
        {
          "internalType": "address[]",
          "name": "path",
          "type": "address[]"
        },
        {
          "internalType": "address",
          "name": "to",
          "type": "address"
        },
        {
          "internalType": "uint256",
          "name": "deadline",
          "type": "uint256"
        }
      ],
      "name": "swapExactTokensForTokens",
      "outputs": [
        {
          "internalType": "uint256[]",
          "name": "amounts",
          "type": "uint256[]"
        }
      ],
      "stateMutability": "nonpayable",
      "type": "function"
    },
    {
      "inputs": [
        {
          "internalType": "uint256",
          "name": "amountOut",
          "type": "uint256"
        },
        {
          "internalType": "uint256",
          "name": "amountInMax",
          "type": "uint256"
        },
        {
          "internalType": "address[]",
          "name": "path",
          "type": "address[]"
        },
        {
          "internalType": "address",
          "name": "to",
          "type": "address"
        }
      ],
      "name": "swapTokensForExactTokens",
      "outputs": [
        {
          "internalType": "uint256[]",
          "name": "amounts",
          "type": "uint256[]"
        }
      ],
      "stateMutability": "nonpayable",
      "type": "function"
    }
  ],
  "bytecode": "0x60a060405234801561001057600080fd5b50604051611bef380380611bef83398101604081905261002f91610040565b6001600160a01b0316608052610070565b60006020828403121561005257600080fd5b81516001600160a01b038116811461006957600080fd5b9392505050565b608051611b026100ed600039600081816101470152818161021b0152818161029c0152818161035e0152818161047e0152818161053401528181610644015281816107c4015281816108250152818161089701528181610f5101528181610fa10152818161121d015281816112d8015261134f0152611b026000f3fe608060405234801561001057600080fd5b50600436106100be5760003560e01c8063b77b47a911610076578063d06ca61f1161005b578063d06ca61f146101a9578063d52bb6f4146101bc578063e8e33700146101cf57600080fd5b8063b77b47a914610142578063baa2abde1461018157600080fd5b806338ed1739116100a757806338ed17391461010957806342712a671461011c57806385f8c2591461012f57600080fd5b8063054d50d4146100c35780631f00ca74146100e9575b600080fd5b6100d66100d13660046115eb565b6101fd565b6040519081526020015b60405180910390f35b6100fc6100f736600461165c565b610214565b6040516100e091906116a8565b6100fc610117366004611703565b610274565b6100fc61012a366004611776565b610477565b6100d661013d3660046115eb565b61060c565b6101697f000000000000000000000000000000000000000000000000000000000000000081565b6040516001600160a01b0390911681526020016100e0565b61019461018f3660046117e1565b610619565b604080519283526020830191909152016100e0565b6100fc6101b736600461165c565b6107bd565b6101946101ca366004611854565b61081d565b6101e26101dd36600461188d565b610857565b604080519384526020840192909252908201526060016100e0565b600061020a84848461097f565b90505b9392505050565b606061020a7f000000000000000000000000000000000000000000000000000000000000000085858580806020026020016040519081016040528093929190818152602001838360200280828437600092019190915250610a3592505050565b60604282101561029757604051634d3620e160e01b815260040160405180910390fd5b6102f57f000000000000000000000000000000000000000000000000000000000000000088878780806020026020016040519081016040528093929190818152602001838360200280828437600092019190915250610bd092505050565b9050858160018351610307919061191f565b8151811061031757610317611938565b60200260200101511015610357576040517f4e65335400000000000000000000000000000000000000000000000000000000815260040160405180910390fd5b60006103d27f00000000000000000000000000000000000000000000000000000000000000008787600081811061039057610390611938565b90506020020160208101906103a5919061194e565b888860018181106103b8576103b8611938565b90506020020160208101906103cd919061194e565b610d2b565b905061042d3382846000815181106103ec576103ec611938565b60200260200101518989600081811061040757610407611938565b905060200201602081019061041c919061194e565b6001600160a01b0316929190610df9565b61046c82878780806020026020016040519081016040528093929190818152602001838360200280828437600092019190915250899250610e6e915050565b509695505050505050565b60606104d77f000000000000000000000000000000000000000000000000000000000000000087868680806020026020016040519081016040528093929190818152602001838360200280828437600092019190915250610a3592505050565b905084816000815181106104ed576104ed611938565b6020026020010151111561052d576040517f48689f7600000000000000000000000000000000000000000000000000000000815260040160405180910390fd5b600061058e7f00000000000000000000000000000000000000000000000000000000000000008686600081811061056657610566611938565b905060200201602081019061057b919061194e565b878760018181106103b8576103b8611938565b90506105c33382846000815181106105a8576105a8611938565b60200260200101518888600081811061040757610407611938565b61060282868680806020026020016040519081016040528093929190818152602001838360200280828437600092019190915250889250610e6e915050565b5095945050505050565b600061020a84848461105e565b6000804283101561063d57604051634d3620e160e01b815260040160405180910390fd5b600061066a7f00000000000000000000000000000000000000000000000000000000000000008b8b610d2b565b6040516323b872dd60e01b81523360048201526001600160a01b03821660248201819052604482018b90529192506323b872dd906064016020604051808303816000875af11580156106c0573d6000803e3d6000fd5b505050506040513d601f19601f820116820180604052508101906106e4919061196b565b506040517f89afcb440000000000000000000000000000000000000000000000000000000081526001600160a01b0386811660048301528216906389afcb449060240160408051808303816000875af1158015610745573d6000803e3d6000fd5b505050506040513d601f19601f82011682018060405250810190610769919061198d565b90935091508683101561078f576040516340c5573960e01b815260040160405180910390fd5b858210156107b0576040516384cdc04760e01b815260040160405180910390fd5b5097509795505050505050565b606061020a7f000000000000000000000000000000000000000000000000000000000000000085858580806020026020016040519081016040528093929190818152602001838360200280828437600092019190915250610bd092505050565b60008061084b7f00000000000000000000000000000000000000000000000000000000000000008585611119565b915091505b9250929050565b60008060004284101561087d57604051634d3620e160e01b815260040160405180910390fd5b61088b8b8b8b8b8b8b6111ef565b909350915060006108bd7f00000000000000000000000000000000000000000000000000000000000000008d8d610d2b565b90506108d46001600160a01b038d16338387610df9565b6108e96001600160a01b038c16338386610df9565b6040517f6a6278420000000000000000000000000000000000000000000000000000000081526001600160a01b038781166004830152821690636a627842906024016020604051808303816000875af115801561094a573d6000803e3d6000fd5b505050506040513d601f19601f8201168201806040525081019061096e91906119b1565b915050985098509895505050505050565b60008084116109ba576040517f81ed2ad600000000000000000000000000000000000000000000000000000000815260040160405180910390fd5b6000831180156109ca5750600082115b6109e75760405163534153b960e01b815260040160405180910390fd5b60006109f5856103e56119ca565b90506000610a0384836119ca565b9050600082610a14876103e86119ca565b610a1e91906119e1565b9050610a2a81836119f4565b979650505050505050565b6060600282511015610a8e5760405162461bcd60e51b815260206004820152600c60248201527f494e56414c49445f50415448000000000000000000000000000000000000000060448201526064015b60405180910390fd5b815167ffffffffffffffff811115610aa857610aa8611a16565b604051908082528060200260200182016040528015610ad1578160200160208202803683370190505b509050828160018351610ae4919061191f565b81518110610af457610af4611938565b602002602001018181525050600060018351610b10919061191f565b90505b8015610bc857600080610b638786610b2c60018761191f565b81518110610b3c57610b3c611938565b6020026020010151878681518110610b5657610b56611938565b6020026020010151611119565b91509150610b8b848481518110610b7c57610b7c611938565b6020026020010151838361105e565b84610b9760018661191f565b81518110610ba757610ba7611938565b60200260200101818152505050508080610bc090611a2c565b915050610b13565b509392505050565b80516060906002811015610c10576040517f08f5a29200000000000000000000000000000000000000000000000000000000815260040160405180910390fd5b8067ffffffffffffffff811115610c2957610c29611a16565b604051908082528060200260200182016040528015610c52578160200160208202803683370190505b5091508382600081518110610c6957610c69611938565b60200260200101818152505060005b610c8360018361191f565b811015610d2257600080610cc988878581518110610ca357610ca3611938565b602002602001015188866001610cb991906119e1565b81518110610b5657610b56611938565b91509150610cf1858481518110610ce257610ce2611938565b6020026020010151838361097f565b85610cfd8560016119e1565b81518110610d0d57610d0d611938565b60209081029190910101525050600101610c78565b50509392505050565b60405163e6a4390560e01b81526001600160a01b03838116600483015282811660248301526000919085169063e6a4390590604401602060405180830381865afa158015610d7d573d6000803e3d6000fd5b505050506040513d601f19601f82011682018060405250810190610da19190611a43565b90506001600160a01b03811661020d5760405162461bcd60e51b815260206004820152600e60248201527f504149525f4e4f545f464f554e440000000000000000000000000000000000006044820152606401610a85565b604080516001600160a01b0385811660248301528416604482015260648082018490528251808303909101815260849091019091526020810180517bffffffffffffffffffffffffffffffffffffffffffffffffffffffff166323b872dd60e01b179052610e6890859061142e565b50505050565b60005b60018351610e7f919061191f565b811015610e6857600080848381518110610e9b57610e9b611938565b602002602001015185846001610eb191906119e1565b81518110610ec157610ec1611938565b6020026020010151915091506000610ed983836114b8565b509050600087610eea8660016119e1565b81518110610efa57610efa611938565b60200260200101519050600080836001600160a01b0316866001600160a01b031614610f2857826000610f2c565b6000835b91509150600060028a51610f40919061191f565b8810610f4c5788610f9a565b610f9a7f0000000000000000000000000000000000000000000000000000000000000000878c610f7d8c60026119e1565b81518110610f8d57610f8d611938565b6020026020010151610d2b565b9050610fc77f00000000000000000000000000000000000000000000000000000000000000008888610d2b565b6040517f6d9a640a00000000000000000000000000000000000000000000000000000000815260048101859052602481018490526001600160a01b0383811660448301529190911690636d9a640a90606401600060405180830381600087803b15801561103357600080fd5b505af1158015611047573d6000803e3d6000fd5b505060019099019850610e71975050505050505050565b6000808411611099576040517ff5b9831a00000000000000000000000000000000000000000000000000000000815260040160405180910390fd5b6000831180156110a95750600082115b6110c65760405163534153b960e01b815260040160405180910390fd5b60006110d285856119ca565b6110de906103e86119ca565b905060006110ec868561191f565b6110f8906103e56119ca565b905061110481836119f4565b61110f9060016119e1565b9695505050505050565b600080600061112885856114b8565b509050600080611139888888610d2b565b6001600160a01b0316630902f1ac6040518163ffffffff1660e01b81526004016040805180830381865afa158015611175573d6000803e3d6000fd5b505050506040513d601f19601f820116820180604052508101906111999190611a83565b6dffffffffffffffffffffffffffff1691506dffffffffffffffffffffffffffff169150826001600160a01b0316876001600160a01b0316146111dd5780826111e0565b81815b90999098509650505050505050565b60405163e6a4390560e01b81526001600160a01b0387811660048301528681166024830152600091829182917f00000000000000000000000000000000000000000000000000000000000000009091169063e6a4390590604401602060405180830381865afa158015611266573d6000803e3d6000fd5b505050506040513d601f19601f8201168201806040525081019061128a9190611a43565b6001600160a01b031603611347576040517fc9c653960000000000000000000000000000000000000000000000000000000081526001600160a01b03898116600483015288811660248301527f0000000000000000000000000000000000000000000000000000000000000000169063c9c65396906044016020604051808303816000875af1158015611321573d6000803e3d6000fd5b505050506040513d601f19601f820116820180604052508101906113459190611a43565b505b6000806113757f00000000000000000000000000000000000000000000000000000000000000008b8b611119565b91509150816000148015611387575080155b1561139757879350869250611421565b60006113a489848461156e565b90508781116113d957858110156113ce576040516384cdc04760e01b815260040160405180910390fd5b88945092508261141f565b60006113e689848661156e565b9050898111156113f8576113f8611ab6565b87811015611419576040516340c5573960e01b815260040160405180910390fd5b94508793505b505b5050965096945050505050565b600080602060008451602086016000885af180611451576040513d6000823e3d81fd5b50506000513d91508115611469578060011415611476565b6001600160a01b0384163b155b15610e68576040517f5274afe70000000000000000000000000000000000000000000000000000000081526001600160a01b0385166004820152602401610a85565b600080826001600160a01b0316846001600160a01b031603611506576040517f94a34c1000000000000000000000000000000000000000000000000000000000815260040160405180910390fd5b826001600160a01b0316846001600160a01b031610611526578284611529565b83835b90925090506001600160a01b038216610850576040517ffc103ff700000000000000000000000000000000000000000000000000000000815260040160405180910390fd5b60008084116115a9576040517f50b30ca200000000000000000000000000000000000000000000000000000000815260040160405180910390fd5b6000831180156115b95750600082115b6115d65760405163534153b960e01b815260040160405180910390fd5b826115e183866119ca565b61020a91906119f4565b60008060006060848603121561160057600080fd5b505081359360208301359350604090920135919050565b60008083601f84011261162957600080fd5b50813567ffffffffffffffff81111561164157600080fd5b6020830191508360208260051b850101111561085057600080fd5b60008060006040848603121561167157600080fd5b83359250602084013567ffffffffffffffff81111561168f57600080fd5b61169b86828701611617565b9497909650939450505050565b602080825282518282018190526000918401906040840190835b818110156116e05783518352602093840193909201916001016116c2565b509095945050505050565b6001600160a01b038116811461170057600080fd5b50565b60008060008060008060a0878903121561171c57600080fd5b8635955060208701359450604087013567ffffffffffffffff81111561174157600080fd5b61174d89828a01611617565b9095509350506060870135611761816116eb565b95989497509295919493608090920135925050565b60008060008060006080868803121561178e57600080fd5b8535945060208601359350604086013567ffffffffffffffff8111156117b357600080fd5b6117bf88828901611617565b90945092505060608601356117d3816116eb565b809150509295509295909350565b600080600080600080600060e0888a0312156117fc57600080fd5b8735611807816116eb565b96506020880135611817816116eb565b955060408801359450606088013593506080880135925060a088013561183c816116eb565b96999598509396929591949193505060c09091013590565b6000806040838503121561186757600080fd5b8235611872816116eb565b91506020830135611882816116eb565b809150509250929050565b600080600080600080600080610100898b0312156118aa57600080fd5b88356118b5816116eb565b975060208901356118c5816116eb565b965060408901359550606089013594506080890135935060a0890135925060c08901356118f1816116eb565b979a969950949793969295919450919260e001359150565b634e487b7160e01b600052601160045260246000fd5b8181038181111561193257611932611909565b92915050565b634e487b7160e01b600052603260045260246000fd5b60006020828403121561196057600080fd5b813561020d816116eb565b60006020828403121561197d57600080fd5b8151801515811461020d57600080fd5b600080604083850312156119a057600080fd5b505080516020909101519092909150565b6000602082840312156119c357600080fd5b5051919050565b808202811582820484141761193257611932611909565b8082018082111561193257611932611909565b600082611a1157634e487b7160e01b600052601260045260246000fd5b500490565b634e487b7160e01b600052604160045260246000fd5b600081611a3b57611a3b611909565b506000190190565b600060208284031215611a5557600080fd5b815161020d816116eb565b80516dffffffffffffffffffffffffffff81168114611a7e57600080fd5b919050565b60008060408385031215611a9657600080fd5b611a9f83611a60565b9150611aad60208401611a60565b90509250929050565b634e487b7160e01b600052600160045260246000fdfea26469706673582212209cb9fe7a2750c50c71c663a8dbd8270f2f6a91ccca7f2a6b9dc449b2ab5c1c6d64736f6c634300081c0033",
  "linkReferences": {},
  "deployedLinkReferences": {}
}