{
  "_format": "hh-sol-artifact-1",
  "contractName": "TestToken",
  "sourceName": "contracts/TestToken.sol",
  "abi": [
    {
      "inputs": [
        {
          "internalType": "string",
          "name": "name",
          "type": "string"
        },
        {
          "internalType": "string",
          "name": "symbol",
          "type": "string"
        }
      ],
      "stateMutability": "nonpayable",
      "type": "constructor"
    },
    {
      "inputs": [
        {
          "internalType": "address",
          "name": "spender",
          "type": "address"
        },
        {
          "internalType": "uint256",
          "name": "allowance",
          "type": "uint256"
        },
        {
          "internalType": "uint256",
          "name": "needed",
          "type": "uint256"
        }
      ],
      "name": "ERC20InsufficientAllowance",
      "type": "error"
    },
    {
      "inputs": [
        {
          "internalType": "address",
          "name": "sender",
          "type": "address"
        },
        {
          "internalType": "uint256",
          "name": "balance",
          "type": "uint256"
        },
        {
          "internalType": "uint256",
          "name": "needed",
          "type": "uint256"
        }
      ],
      "name": "ERC20InsufficientBalance",
      "type": "error"
    },
    {
      "inputs": [
        {
          "internalType": "address",
          "name": "approver",
          "type": "address"
        }
      ],
      "name": "ERC20InvalidApprover",
      "type": "error"
    },
    {
      "inputs": [
        {
          "internalType": "address",
          "name": "receiver",
          "type": "address"
        }
      ],
      "name": "ERC20InvalidReceiver",
      "type": "error"
    },
    {
      "inputs": [
        {
          "internalType": "address",
          "name": "sender",
          "type": "address"
        }
      ],
      "name": "ERC20InvalidSender",
      "type": "error"
    },
    {
      "inputs": [
        {
          "internalType": "address",
          "name": "spender",
          "type": "address"
        }
      ],
      "name": "ERC20InvalidSpender",
      "type": "error"
    },
    {
      "anonymous": false,
      "inputs": [
        {
          "indexed": true,
          "internalType": "address",
          "name": "owner",
          "type": "address"
        },
        {
          "indexed": true,
          "internalType": "address",
          "name": "spender",
          "type": "address"
        },
        {
          "indexed": false,
          "internalType": "uint256",
          "name": "value",
          "type": "uint256"
        }
      ],
      "name": "Approval",
      "type": "event"
    },
    {
      "anonymous": false,
      "inputs": [
        {
          "indexed": true,
          "internalType": "address",
          "name": "from",
          "type": "address"
        },
        {
          "indexed": true,
          "internalType": "address",
          "name": "to",
          "type": "address"
        },
        {
          "indexed": false,
          "internalType": "uint256",
          "name": "value",
          "type": "uint256"
        }
      ],
      "name": "Transfer",
      "type": "event"
    },
    {
      "inputs": [],
      "name": "INITIAL_SUPPLY",
      "outputs": [
        {
          "internalType": "uint256",
          "name": "",
          "type": "uint256"
        }
      ],
      "stateMutability": "view",
      "type": "function"
    },
    {
      "inputs": [
        {
          "internalType": "address",
          "name": "owner",
          "type": "address"
        },
        {
          "internalType": "address",
          "name": "spender",
          "type": "address"
        }
      ],
      "name": "allowance",
      "outputs": [
        {
          "internalType": "uint256",
          "name": "",
          "type": "uint256"
        }
      ],
      "stateMutability": "view",
      "type": "function"
    },
    {
      "inputs": [
        {
          "internalType": "address",
          "name": "spender",
          "type": "address"
        },
        {
          "internalType": "uint256",
          "name": "value",
          "type": "uint256"
        }
      ],
      "name": "approve",
      "outputs": [
        {
          "internalType": "bool",
          "name": "",
          "type": "bool"
        }
      ],
      "stateMutability": "nonpayable",
      "type": "function"
    },
    {
      "inputs": [
        {
          "internalType": "address",
          "name": "account",
          "type": "address"
        }
      ],
      "name": "balanceOf",
      "outputs": [
        {
          "internalType": "uint256",
          "name": "",
          "type": "uint256"
        }
      ],
      "stateMutability": "view",
      "type": "function"
    },
    {
      "inputs": [],
      "name": "decimals",
      "outputs": [
        {
          "internalType": "uint8",
          "name": "",
          "type": "uint8"
        }
      ],
      "stateMutability": "view",
      "type": "function"
    },
    {
      "inputs": [
        {
          "internalType": "address",
          "name": "to",
          "type": "address"
        },
        {
          "internalType": "uint256",
          "name": "amount",
          "type": "uint256"
        }
      ],
      "name": "mint",
      "outputs": [],
      "stateMutability": "nonpayable",
      "type": "function"
    },
    {
      "inputs": [],
      "name": "name",
      "outputs": [
        {
          "internalType": "string",
          "name": "",
          "type": "string"
        }
      ],
      "stateMutability": "view",
      "type": "function"
    },
    {
      "inputs": [],
      "name": "symbol",
      "outputs": [
        {
          "internalType": "string",
          "name": "",
          "type": "string"
        }
      ],
      "stateMutability": "view",
      "type": "function"
    },
    {
      "inputs": [],
      "name": "totalSupply",
      "outputs": [
        {
          "internalType": "uint256",
          "name": "",
          "type": "uint256"
        }
      ],
      "stateMutability": "view",
      "type": "function"
    },
    {
      "inputs": [
        {
          "internalType": "address",
          "name": "to",
          "type": "address"
        },
        {
          "internalType": "uint256",
          "name": "value",
          "type": "uint256"
        }
      ],
      "name": "transfer",
      "outputs": [
        {
          "internalType": "bool",
          "name": "",
          "type": "bool"
        }
      ],
      "stateMutability": "nonpayable",
      "type": "function"
    },
    {
      "inputs": [
        {
          "internalType": "address",
          "name": "from",
          "type": "address"
        },
        {
          "internalType": "address",
          "name": "to",
          "type": "address"
        },
        {
          "internalType": "uint256",
          "name": "value",
          "type": "uint256"
        }
      ],
      "name": "transferFrom",
      "outputs": [
        {
          "internalType": "bool",
          "name": "",
          "type": "bool"
        }
      ],
      "stateMutability": "nonpayable",
      "type": "function"
    }
  ],
  "bytecode": "0x608060405234801561001057600080fd5b50604051610cb5380380610cb583398101604081905261002f91610290565b8181600361003d8382610382565b50600461004a8282610382565b5050506100673369d3c21bcecceda100000061006e60201b60201c565b5050610467565b6001600160a01b03821661009d5760405163ec442f0560e01b8152600060048201526024015b60405180910390fd5b6100a9600083836100ad565b5050565b6001600160a01b0383166100d85780600260008282546100cd9190610440565b9091555061014a9050565b6001600160a01b0383166000908152602081905260409020548181101561012b5760405163391434e360e21b81526001600160a01b03851660048201526024810182905260448101839052606401610094565b6001600160a01b03841660009081526020819052604090209082900390555b6001600160a01b03821661016657600280548290039055610185565b6001600160a01b03821660009081526020819052604090208054820190555b816001600160a01b0316836001600160a01b03167fddf252ad1be2c89b69c2b068fc378daa952ba7f163c4a11628f55a4df523b3ef836040516101ca91815260200190565b60405180910390a3505050565b634e487b7160e01b600052604160045260246000fd5b600082601f8301126101fe57600080fd5b81516001600160401b03811115610217576102176101d7565b604051601f8201601f19908116603f011681016001600160401b0381118282101715610245576102456101d7565b60405281815283820160200185101561025d57600080fd5b60005b8281101561027c57602081860181015183830182015201610260565b506000918101602001919091529392505050565b600080604083850312156102a357600080fd5b82516001600160401b038111156102b957600080fd5b6102c5858286016101ed565b602085015190935090506001600160401b038111156102e357600080fd5b6102ef858286016101ed565b9150509250929050565b600181811c9082168061030d57607f821691505b60208210810361032d57634e487b7160e01b600052602260045260246000fd5b50919050565b601f82111561037d57806000526020600020601f840160051c8101602085101561035a5750805b601f840160051c820191505b8181101561037a5760008155600101610366565b50505b505050565b81516001600160401b0381111561039b5761039b6101d7565b6103af816103a984546102f9565b84610333565b6020601f8211600181146103e357600083156103cb5750848201515b600019600385901b1c1916600184901b17845561037a565b600084815260208120601f198516915b8281101561041357878501518255602094850194600190920191016103f3565b50848210156104315786840151600019600387901b60f8161c191681555b50505050600190811b01905550565b8082018082111561046157634e487b7160e01b600052601160045260246000fd5b92915050565b61083f806104766000396000f3fe608060405234801561001057600080fd5b50600436106100c95760003560e01c8063313ce5671161008157806395d89b411161005b57806395d89b4114610192578063a9059cbb1461019a578063dd62ed3e146101ad57600080fd5b8063313ce5671461014557806340c10f191461015457806370a082311461016957600080fd5b806318160ddd116100b257806318160ddd1461010f57806323b872dd146101215780632ff2e9dc1461013457600080fd5b806306fdde03146100ce578063095ea7b3146100ec575b600080fd5b6100d66101e6565b6040516100e39190610688565b60405180910390f35b6100ff6100fa3660046106f2565b610278565b60405190151581526020016100e3565b6002545b6040519081526020016100e3565b6100ff61012f36600461071c565b610292565b61011369d3c21bcecceda100000081565b604051601281526020016100e3565b6101676101623660046106f2565b6102b6565b005b610113610177366004610759565b6001600160a01b031660009081526020819052604090205490565b6100d66102c4565b6100ff6101a83660046106f2565b6102d3565b6101136101bb36600461077b565b6001600160a01b03918216600090815260016020908152604080832093909416825291909152205490565b6060600380546101f5906107ae565b80601f0160208091040260200160405190810160405280929190818152602001828054610221906107ae565b801561026e5780601f106102435761010080835404028352916020019161026e565b820191906000526020600020905b81548152906001019060200180831161025157829003601f168201915b5050505050905090565b6000336102868185856102e1565b60019150505b92915050565b6000336102a08582856102f3565b6102ab858585610390565b506001949350505050565b6102c08282610408565b5050565b6060600480546101f5906107ae565b600033610286818585610390565b6102ee838383600161043e565b505050565b6001600160a01b0383811660009081526001602090815260408083209386168352929052205460001981101561038a578181101561037b576040517ffb8f41b20000000000000000000000000000000000000000000000000000000081526001600160a01b038416600482015260248101829052604481018390526064015b60405180910390fd5b61038a8484848403600061043e565b50505050565b6001600160a01b0383166103d3576040517f96c6fd1e00000000000000000000000000000000000000000000000000000000815260006004820152602401610372565b6001600160a01b0382166103fd5760405163ec442f0560e01b815260006004820152602401610372565b6102ee838383610545565b6001600160a01b0382166104325760405163ec442f0560e01b815260006004820152602401610372565b6102c060008383610545565b6001600160a01b038416610481576040517fe602df0500000000000000000000000000000000000000000000000000000000815260006004820152602401610372565b6001600160a01b0383166104c4576040517f94280d6200000000000000000000000000000000000000000000000000000000815260006004820152602401610372565b6001600160a01b038085166000908152600160209081526040808320938716835292905220829055801561038a57826001600160a01b0316846001600160a01b03167f8c5be1e5ebec7d5bd14f71427d1e84f3dd0314c0f7b2291e5b200ac8c7c3b9258460405161053791815260200190565b60405180910390a350505050565b6001600160a01b03831661057057806002600082825461056591906107e8565b909155506105fb9050565b6001600160a01b038316600090815260208190526040902054818110156105dc576040517fe450d38c0000000000000000000000000000000000000000000000000000000081526001600160a01b03851660048201526024810182905260448101839052606401610372565b6001600160a01b03841660009081526020819052604090209082900390555b6001600160a01b03821661061757600280548290039055610636565b6001600160a01b03821660009081526020819052604090208054820190555b816001600160a01b0316836001600160a01b03167fddf252ad1be2c89b69c2b068fc378daa952ba7f163c4a11628f55a4df523b3ef8360405161067b91815260200190565b60405180910390a3505050565b602081526000825180602084015260005b818110156106b65760208186018101516040868401015201610699565b506000604082850101526040601f19601f83011684010191505092915050565b80356001600160a01b03811681146106ed57600080fd5b919050565b6000806040838503121561070557600080fd5b61070e836106d6565b946020939093013593505050565b60008060006060848603121561073157600080fd5b61073a846106d6565b9250610748602085016106d6565b929592945050506040919091013590565b60006020828403121561076b57600080fd5b610774826106d6565b9392505050565b6000806040838503121561078e57600080fd5b610797836106d6565b91506107a5602084016106d6565b90509250929050565b600181811c908216806107c257607f821691505b6020821081036107e257634e487b7160e01b600052602260045260246000fd5b50919050565b8082018082111561028c57634e487b7160e01b600052601160045260246000fdfea26469706673582212207c17d2739edfa5cef2716815e8209d8ebc195c96d586f4595a9dd8bffcaf910b64736f6c634300081c0033",
  "linkReferences": {},
  "deployedLinkReferences": {}
}